{
    "contractName": "TOEICScore",
    "abi": [
        {
            "inputs": [],
            "name": "getTOEICScore",
            "outputs": [
                {
                    "internalType": "uint256",
                    "name": "",
                    "type": "uint256"
                }
            ],
            "stateMutability": "view",
            "type": "function"
        },
        {
            "inputs": [
                {
                    "internalType": "address",
                    "name": "_user",
                    "type": "address"
                }
            ],
            "name": "getTOEICScoreByAddress",
            "outputs": [
                {
                    "internalType": "uint256",
                    "name": "",
                    "type": "uint256"
                }
            ],
            "stateMutability": "view",
            "type": "function"
        },
        {
            "inputs": [
                {
                    "internalType": "address",
                    "name": "",
                    "type": "address"
                }
            ],
            "name": "scores",
            "outputs": [
                {
                    "internalType": "uint256",
                    "name": "",
                    "type": "uint256"
                }
            ],
            "stateMutability": "view",
            "type": "function"
        },
        {
            "inputs": [
                {
                    "internalType": "uint256",
                    "name": "_toeicScore",
                    "type": "uint256"
                }
            ],
            "name": "setTOEICScore",
            "outputs": [],
            "stateMutability": "nonpayable",
            "type": "function"
        }
    ],
    "bytecode": "608060405234801561001057600080fd5b506101af806100206000396000f3fe608060405234801561001057600080fd5b506004361061004c5760003560e01c80632cc3c80e146100515780635cd7b4a81461007457806376dd110f1461009d578063a94a3814146100bd575b600080fd5b336000908152602081905260409020545b60405190815260200160405180910390f35b610062610082366004610130565b6001600160a01b031660009081526020819052604090205490565b6100626100ab366004610130565b60006020819052908152604090205481565b6100d06100cb366004610160565b6100d2565b005b6103de81111561011e5760405162461bcd60e51b8152602060048201526013602482015272496e76616c696420544f4549432053636f726560681b604482015260640160405180910390fd5b33600090815260208190526040902055565b60006020828403121561014257600080fd5b81356001600160a01b038116811461015957600080fd5b9392505050565b60006020828403121561017257600080fd5b503591905056fea26469706673582212200440e4340ac70fef82f062b5300322059a8da2e4f588420d05c48739eea75d1b64736f6c63430008110033",
    "sourcePath": "c:/Users/BI/Desktop/blockchain-dev-basic-code-master/contracts/TOEICScoreManager.sol",
    "compiler": {
        "name": "solc",
        "version": "0.8.17+commit.8df45f5f"
    },
    "functionHashes": {
        "getTOEICScore()": "2cc3c80e",
        "getTOEICScoreByAddress(address)": "5cd7b4a8",
        "scores(address)": "76dd110f",
        "setTOEICScore(uint256)": "a94a3814"
    },
    "gasEstimates": {
        "creation": {
            "codeDepositCost": "86200",
            "executionCost": "135",
            "totalCost": "86335"
        },
        "external": {
            "getTOEICScore()": "2318",
            "getTOEICScoreByAddress(address)": "2493",
            "scores(address)": "2497",
            "setTOEICScore(uint256)": "22465"
        }
    }
}